:020000040800F2
:10000000986F002069020008EB240008811B00089B
:1000100099210008DD050008FD85000800000000AA
:1000200000000000000000000000000065700008F3
:100030005D14000800000000A70300081173000809
:10004000830200088302000883020008830200087C
:1000500083020008830200085F140008830200087E
:10006000F51400083D150008571500088302000824
:10007000830200088302000883020008830200084C
:10008000830200088302000883020008830200083C
:10009000E105000883020008090600087115000840
:1000A000830200088302000883020008830200081C
:1000B00095730008F173000871740008830200084A
:1000C00083020008830200088302000883020008FC
:1000D000830200086D800008B1800008F5800008E8
:1000E00079140008830200088302000883020008D4
:1000F000B976000883020008830200088302000822
:100100008302000883020008C1740008830200080B
:10011000DD7D000829800008830200085975000869
:10012000830200088302000883020008830200089B
:10013000830200088302000883020008830200088B
:10014000830200088302000883020008830200087B
:10015000830200088302000883020008830200086B
:10016000830200088302000883020008830200085B
:10017000830200088302000883020008830200084B
:10018000830200088302000800F002F800F05CF827
:100190000AA090E8000C82448344AAF10107DA45E2
:1001A00001D100F051F8AFF2090EBAE80F0013F0D8
:1001B000010F18BFFB1A43F0010318477CA600008B
:1001C0009CA600000A444FF0000C10F8013B13F00D
:1001D000070408BF10F8014B1D1108BF10F8015BA0
:1001E000641E05D010F8016B641E01F8016BF9D193
:1001F00013F0080F1EBF10F8014BAD1C0C1B09D1EA
:100200006D1E58BF01F801CBFAD505E014F8016B5B
:1002100001F8016B6D1EF9D59142D6D370470000ED
:100220000023002400250026103A28BF78C1FBD8FF
:10023000520728BF30C148BF0B6070471FB50AF096
:100240006CF81FBD10B510BD00F05EF81146FFF749
:10025000F5FF08F0D1FF00F07CF803B4FFF7F2FFE0
:1002600003BC00F07DF800000948804709480047BA
:10027000FEE7FEE7FEE7FEE7FEE7FEE7FEE7FEE756
:10028000FEE7FEE704480549054A064B70470000B3
:100290002D7300088901000898690020986F0020DC
:1002A000986B0020986B002072B6704762B670475A
:1002B000EFF3108072B6704780F31088704730BF3C
:1002C000704720BF7047B0FA80F0704790FAA0F0F6
:1002D000B0FA80F0704790FAA0F07047704770470E
:1002E000704710B500F008F8006810BD10B504465E
:1002F00000F002F8046010BD004870473869002023
:1003000000487047386900207546FFF7F9FFAE4690
:1003100005006946534620F00700854618B020B511
:10032000FFF7B0FFBDE820404FF000064FF0000798
:100330004FF000084FF0000B21F00701AC46ACE88D
:10034000C009ACE8C009ACE8C009ACE8C0098D46FA
:1003500070470446AFF300802046FFF77EFF0000A1
:1003600001491820ABBEFEE72600020070470000DE
:1003700022484FF6FF710170002080F30988204861
:10038000016881F308881F484FF08051016062B610
:10039000FEE71C484FF080510160704719484FF04C
:1003A00080510160704772B6EFF3098050B11EF0C2
:1003B000100F08BF20ED108A203880E8F00F124996
:1003C0000968086000B5114880475DF804EB1048E3
:1003D00010490A7802700C480F490A6802601068D8
:1003E00090E8F00F20301EF0100F08BFB0EC108A1C
:1003F00080F309884EF0040E62B6704722ED00E0EB
:10040000A002002004ED00E098020020DD3E00087C
:1004100016020020170200209C02002000B585B0C3
:100420000121880406F080FC07220A21414801F0DE
:1004300068FA07220B213F4801F063FA01200023EC
:100440000222810200903B4801F0F2F901200023D2
:100450000222C1020090374801F0EAF9364807F05D
:10046000DFFE4FF4E13001900020ADF810000C20C9
:10047000ADF80E000020ADF80C00ADF80A00ADF8A4
:10048000080001A92C4807F093FF012211462720FC
:1004900002F02CF8012240F22551274807F062FFB4
:1004A0000121254807F0AFFE0121C80406F03CFCFD
:1004B00008220A21214801F024FA08220B211F48B2
:1004C00001F01FFA012000230222810200901B4844
:1004D00001F0AEF9012000230222C102009017486A
:1004E00001F0A6F9164807F09BFE4FF4E1300190A9
:1004F0000020ADF810000C20ADF80E000020ADF883
:100500000C00ADF80A00ADF8080001A90C4807F08E
:100510004FFF03220121342001F0E8FF012240F2C5
:100520002551074807F01EFF0121054807F06BFE23
:1005300005B000BD00040240004800400008024031
:10054000004C004008B5012000230246082100901D
:10055000034801F06DF90821014801F0FEF908BDDA
:10056000000C02401FB5684606F01EFC019804B05E
:1005700010BD000010B54FF4A06002F005F808F0BF
:1005800045FD01F0FFFA002000F0BCF80122022135
:10059000152001F0ABFF07F07FFF01F02FFD01F008
:1005A00005FB06F0DFFC06F073FC02210A4801F0AF
:1005B000D4F9FFF733FF06F0BFFF07F069F806F044
:1005C00041FFFFF7BFFF06F001FD01F067F801F002
:1005D00019FE00F09FFE10BD0004024000BFFEE7C0
:1005E00010B502F0B3F80221064800F0D9F928B19D
:1005F0000221044800F032F800F06EFB02F0BCF873
:1006000010BD00000064004010B502F09FF84FF4E8
:100610008061114800F0C4F920B14FF480610E48A8
:1006200000F01CF84FF480710B4800F0B9F920B1CC
:100630004FF48071084800F011F84FF4007106483B
:1006400000F0AEF920B14FF40071034800F006F855
:1006500002F092F810BD000000640040B1F5007F88
:100660003AD00FDC202928D006DC01291CD004292F
:100670001DD0082940D11DE0402921D0B1F5807F4F
:100680003AD126E0B1F5004F31D006DCB1F5806FEC
:1006900025D0B1F5006F2FD124E0B1F5803F12D005
:1006A000B1F5003F28D111E0154A826025E008220B
:1006B000C26022E01022C2601FE0082202611CE03A
:1006C0001022026119E00822426016E01022426006
:1006D00013E00422426010E0042242600DE0042294
:1006E00042600AE0002282610422426005E00022AA
:1006F00082610422426000E000BF00BF704700003A
:100700000101010010B588B004460121480606F039
:100710000BFB012000230222014600904E4801F00D
:1007200087F8012000230222114600904A4801F078
:100730007FF809220021484801F0E3F8092201214D
:10074000454801F0DEF8454800F08AF805A800F0B9
:100750007BFB01208DF81B0000208DF81C008DF81C
:10076000164001208DF81D0000208DF81E008DF828
:100770001A0001208DF81F0006208DF818000520B2
:100780008DF8190000208DF817000620ADF8140030
:1007900005A9324800F09DF901208DF811000020D4
:1007A000ADF80C00ADF80400ADF80600ADF8080097
:1007B000ADF80A008DF80F008DF80E0001208DF8BD
:1007C000100001A800F068F801208DF81100ADF8C4
:1007D0000C000020ADF80400ADF80600ADF80800EC
:1007E000ADF80A008DF80F0001208DF80E008DF88D
:1007F000100001A800F050F801208DF81100002031
:10080000ADF80C00ADF80400ADF80600ADF8080036
:10081000ADF80A008DF80F0002208DF80E000120BF
:100820008DF8100001A800F037F8012202210B48D2
:1008300000F046F901229102084800F041F9012236
:100840001102064800F03CF901225102034800F071
:1008500037F908B010BD0000000C024000640040F1
:1008600010B504460B48844209D10121480606F020
:100870006BFA00214FF0007006F066FA08E00121E3
:10088000880606F061FA00214FF0806006F05CFAFD
:1008900010BD00000064004010B50021837A0122E1
:1008A00002FA03F13D4A126842F001023B4B1A6022
:1008B0003A4A1C3212688A43384B1C331A60027B56
:1008C000CAB9364A0C3212688A43344B0C331A6068
:1008D0004288C38842EA0343304A4032847A42F86D
:1008E00034300288838842EA03432C4A4032847AB7
:1008F00002EBC4025360027B012A19D1274A0C3251
:1009000012680A43254B0C331A604288038842EA76
:100910000343224A4032847A42F83430C2888388C2
:1009200042EA03431D4A4032847A02EBC402536018
:10093000C27A3AB9194A121D12688A43174B1B1D15
:100940001A6006E0154A121D12680A43134B1B1D5C
:100950001A60028932B9114A143212688A430F4B65
:1009600014331A600289012A06D10C4A1432126823
:100970000A430A4B14331A60427B012A06D1074A04
:100980001C3212680A43054B1C331A60034A126872
:1009900022F00102014B1A6010BD00000066004009
:1009A00070B504460D46002660692840002871D0C5
:1009B000B5F5807F5CD010DC082D35D006DC012D2C
:1009C00020D0022D24D0042D72D127E0102D31D05B
:1009D000202D35D0402D6BD138E0B5F5004F60D0DB
:1009E00009DCB5F5007F49D0B5F5806F4CD0B5F581
:1009F000006F5DD14FE0B5F5803F2DD0B5F5003FDC
:100A000056D12FE0A0682D4900F064FB064651E066
:100A1000E068032100F05EFB06464BE0E068082139
:100A200000F058FB064645E0E068102100F052FB5C
:100A300006463FE02069032100F04CFB064639E002
:100A40002069082100F046FB064633E020691021AA
:100A500000F040FB06462DE06068082100F03AFBFC
:100A6000064627E06068102100F034FB064621E0CE
:100A7000A069012100F02EFB06461BE0A0690221BF
:100A800000F028FB064615E0A069042100F022FBD7
:100A900006460FE00FE0A069702100F01BFB064640
:100AA00008E06068042100F015FB064602E0FFE75D
:100AB000002600BF00E00026304670BD01010100A5
:100AC0001AB143690B43436102E043698B434361BD
:100AD000704730B5024600200023146824F0020459
:100AE0001460146844F00104146000E05B1C546856
:100AF00004F001041CB94FF6FF74A342F6D1546808
:100B000004F001040CB900206CE08C79012C04D1B4
:100B1000146844F08004146003E0146824F0800436
:100B20001460CC79012C04D1146844F040041460A2
:100B300003E0146824F0400414600C7A012C04D102
:100B4000146844F02004146003E0146824F02004C6
:100B500014604C7A012C04D1146844F01004146021
:100B600003E0146824F0100414608C7A012C04D182
:100B7000146844F00804146003E0146824F00804C6
:100B80001460CC7A012C04D1146844F0040414607D
:100B900003E0146824F0040414608C78A407CD7872
:100BA00044EA05640D7944EA05444D7944EA055464
:100BB0000D886D1E2C43D461146824F00104146068
:100BC000002300E05B1C546804F001041CB14FF6E4
:100BD000FF74A342F6D1546804F001040CB1002064
:100BE00000E0012030BD10B500F5D87303EB011310
:100BF0001B6803F004031372137A53B900F5D8731A
:100C000003EB01131B6840F2FF7404EA53531360B3
:100C100009E000F5D87303EB01131B686FF0604423
:100C200004EAD303536000F5D87303EB01131B6888
:100C300003F00203537200F5D87303EB01135B68F2
:100C400003F00F03937200F5D87303EB01135B6895
:100C50001B0AD37400F5D87303EB01139B68D3729E
:100C600000F5D87303EB01139B681C0A147300F59D
:100C7000D87303EB01139B681C0C547300F5D873F5
:100C800003EB01139B681B0E937300F5D87303EB02
:100C90000113DB68D37300F5D87303EB0113DB6832
:100CA0001C0A147400F5D87303EB0113DB681C0CE9
:100CB000547400F5D87303EB0113DB681B0E9374B7
:100CC00021B9C36843F02003C36003E0036943F024
:100CD0002003036110BD000010B586B00020009015
:100CE0008DF809008DF8080001908DF80A008DF844
:100CF0000B0000218DF80C108DF80D108DF80E10E2
:100D00008DF80F108DF810108DF811108DF812104D
:100D10006A464748FFF767FF009848280DD19DF8BD
:100D20000D0020B19DF80E00424908807DE09DF83D
:100D30000E0040423F49088077E0009847280DD1D7
:100D40009DF80D0020B19DF80E003A4908806CE036
:100D50009DF80E0040423749088066E09DF80C007F
:100D60000A2815D19DF80D00912811D1002407E023
:100D7000201D0DF10B01085C05A90855601CC4B2CB
:100D8000042CF5DB01202C490860059848604CE0F4
:100D90009DF80C00112815D19DF80D00912811D156
:100DA000002407E0201D0DF10B01085C05A9085582
:100DB000601CC4B2042CF5DB0120204908600598B2
:100DC000486032E09DF80C000B2815D19DF80D000D
:100DD000912811D1002407E0201D0DF10B01085CC2
:100DE00005A90855601CC4B2042CF5DB0120144988
:100DF00008600598486018E09DF80C00102814D190
:100E00009DF80D00912810D1002407E0201D0DF160
:100E10000B01085C05A90855601CC4B2042CF5DB65
:100E20000120084908600598486006B010BD000020
:100E30000064004012010020BC000020C40000201B
:100E4000CC000020D400002000218171C17101720A
:100E500041728172C1728170C170032101710221DE
:100E6000417101210180704710B50246002093684E
:100E700003F08063B3F1806F00D110E0936803F05A
:100E80000063B3F1006F01D1012008E0936803F023
:100E90008053B3F1805F01D1022000E004200428D8
:100EA00074D002F5C07303EB00131B6803F0010458
:100EB00002F5C07303EB00131C600B7A7BB94B7A0D
:100EC0000C8843EA445302F5C07404EB0014246810
:100ED000234302F5C07404EB0014236010E00B7A86
:100EE0004C6843EAC4034C7A234302F5C07404EB14
:100EF00000142468234302F5C07404EB001423603B
:100F00008B7A03F00F038B7202F5C07303EB0013AF
:100F10005B6823F00F0402F5C07303EB00135C6001
:100F200002F5C07303EB00135B688C7A234302F570
:100F3000C07404EB001463608B7B1C064B7B44EA9B
:100F400003440B7B44EA0323CC7A234302F5C074A9
:100F500004EB0014A3608B7C1C064B7C44EA034426
:100F60000B7C44EA0323CC7B234302F5C07404EBDF
:100F70000014E36002F5C07303EB00131B6843F039
:100F8000010402F5C07303EB00131C6010BD0000E8
:100F900010B50246002321B1012907D002290FD143
:100FA00009E090681D4C00EA04030BE090681C4CBB
:100FB00000EA040306E090681A4C00EA040301E02A
:100FC000002300BF00BF184C181BA34216D007DC3B
:100FD00083B16FF08060184470B1022818D111E01D
:100FE000B0F5007F10D0114C204448B1B0F5003F5F
:100FF0000ED10BE002230DE000230BE0002309E0FB
:10100000002307E0012305E0012303E0012301E0C1
:10101000002300BF00BFD8B210BD000003000004D1
:101020000003000800000310000100080001FFF7A2
:1010300010B500F01FF800F019F810BD10B500242D
:1010400000BF00BFFFF734F9044600BF00BF102106
:10105000054801F0A3F800BF00BF2046FFF72CF9B8
:1010600000BF00BF10BD0000D84E002010B5FFF734
:10107000E5FF10BD10B500200249086000F00AF835
:1010800010BD0000BC01002001490860704700004D
:10109000BC01002010B5FFF765FA04460848006857
:1010A00040F0807006490860002006494860084604
:1010B000006840F0010008602046FFF7E5FF10BD22
:1010C000FCED00E0001000E00149486870470000B6
:1010D000001000E00246002002EA01030BB10120EB
:1010E00000E00020704770B500240EE0214600208B
:1010F00000F091FE002504E0002006F005F8681CD1
:10110000C5B2802DF8DB601CC4B2082CEEDB70BDCC
:1011100010B5FF21784807F0BAF9642007F0D6FF30
:10112000FE21754807F0B3F9642007F0CFFFFD21D9
:10113000714807F0ACF9642007F0C8FFF2216E484F
:1011400007F0A5F9642007F0C1FF6C4801796A48EF
:1011500007F09DF9642007F0B9FF6848017A6648F6
:1011600007F095F9642007F0B1FF6448417A6248BE
:1011700007F08DF9642007F0A9FF6048817A5E4886
:1011800007F085F9642007F0A1FF5C48C17A5A484E
:1011900007F07DF9642007F099FF5848017B564815
:1011A00007F075F9642007F091FF5448417B5248DD
:1011B00007F06DF9642007F089FF5048817B4E48A5
:1011C00007F065F9642007F081FF4C48C17B4A486D
:1011D00007F05DF9642007F079FF4848017C464834
:1011E00007F055F9642007F071FF4448417C4248FC
:1011F00007F04DF9642007F069FF4048817C3E48C4
:1012000007F045F9642007F061FF3C48C17C3A488B
:1012100007F03DF9642007F059FF3848017D364852
:1012200007F035F9642007F051FF3448417D32481A
:1012300007F02DF9642007F049FF3048817D2E48E2
:1012400007F025F9642007F041FF2C48C17D2A48AA
:1012500007F01DF9642007F039FF2848017E264871
:1012600007F015F9642007F031FF2448417E224839
:1012700007F00DF9642007F029FF2048817E1E4801
:1012800007F005F9642007F021FF1C48C17E1A48C9
:1012900007F0FDF8642007F019FF1848017F164891
:1012A00007F0F5F8642007F011FF1448417F124859
:1012B00007F0EDF8642007F009FF1048817F0E4821
:1012C00007F0E5F8642007F001FF0C48C17F0A48E9
:1012D00007F0DDF8642007F0F9FE0121064807F069
:1012E000D6F8642007F0F2FE0221034807F0CFF899
:1012F000642007F0EBFE10BD004C0040EC00002025
:1013000030B5039C01600271427183710481002534
:10131000857230BD08B5012000231A4601020090F5
:101320004A4800F085FA012000231A464103009044
:10133000474800F07DFA012000231A46C1030090BF
:10134000434800F075FA012000231A46010200907C
:10135000404800F06DFA012000231A460421009055
:101360003A4800F065FA012000231A461021009047
:10137000394800F05DFA012000231A464021009010
:10138000354800F055FA012000231A46410200902A
:101390002F4800F04DFA012000231A46C1020090A8
:1013A0002B4800F045FA10224FF42A41284800F05B
:1013B000D5F910221101274800F0D0F91022502150
:1013C000254800F0CBF910220421204800F0C6F98E
:1013D000102211011D4800F0C1F90821002005F07C
:1013E00043FE0421032005F03FFE0221002005F00A
:1013F0003BFE0621032005F037FE0921062005F0FB
:1014000033FE0B21062005F02FFE0D21062005F0EE
:101410002BFE0F21062005F027FE0821012005F0F4
:1014200023FE00220221282001F060F8032202217D
:10143000172001F05BF802220121082001F056F884
:10144000022211460A2001F051F808BD00000240B6
:101450000018024000040240000C0240704710B522
:1014600001F074F9012000F0C3F810B1012000F080
:10147000B9F801F081F910BD10B501F067F94FF42A
:10148000806000F0B5F818B14FF4806000F0AAF861
:101490004FF4006000F0ACF818B14FF4006000F0B9
:1014A000A1F84FF4805000F0A3F818B14FF4805029
:1014B00000F098F84FF4005000F09AF820B14FF483
:1014C000005000F08FF800BF4FF4804000F090F81B
:1014D00018B14FF4804000F085F84FF4004000F060
:1014E00087F818B14FF4004000F07CF801F044F99F
:1014F00010BD000010B5002401F028F9042000F010
:1015000077F898B1042000F06DF80A480068401C94
:1015100008490860084600681C2190FBF1F201FBB5
:10152000120018B90021044800F08BFF01F024F9E3
:1015300010BD000020000020CC4E002010B501F0AE
:1015400005F9082000F054F810B1082000F04AF81E
:1015500001F012F910BD10B501F0F8F8102000F0FC
:1015600047F810B1102000F03DF801F005F910BD6A
:1015700010B501F0EBF8202000F03AF810B120206F
:1015800000F030F8402000F033F810B1402000F0B7
:1015900029F8802000F02CF810B1802000F022F80B
:1015A0004FF4807000F024F860B14FF4807000F0C8
:1015B00019F84FF08040416A0848008801EB00406C
:1015C000074908604FF4007000F012F818B14FF4AA
:1015D000007000F007F801F0CFF810BDB000002057
:1015E0001C0000200149086070470000143C0140C5
:1015F00001460020034A12680A400AB1012000E0B7
:1016000000207047143C0140002123498279002AC0
:101610003AD00A46126803689A430B461A600A1DBC
:10162000126803689A430B1D1A60027911440A6814
:1016300003681A430A60184A0832126803689A431A
:10164000154B08331A601A1D126803689A43124B2F
:101650000C331A604279102A0ED11A1F12680368DF
:101660001A430D4B08331A601A1D126803681A4397
:10167000094B0C331A600DE00749427911440A689E
:1016800003681A430A6005E0027911440A68036896
:101690009A430A6070470000003C014008B50222EE
:1016A0000C21294800F02DF902220D21264800F0D6
:1016B00028F90120002302224FF4405100902248D3
:1016C00000F0B6F80021214806F048F80122002178
:1016D0001E2000F00BFF01200023022203210090B6
:1016E0001B4800F0A5F801220021194800F009F973
:1016F00001221146164800F004F900214FF0804005
:1017000006F02CF8022200211C2000F0EFFE03223C
:101710000621104800F0F5F8032207210D4800F0DB
:10172000F0F8012000230222C0210090094800F0B7
:101730007FF80021084806F011F8032200212C2030
:1017400000F0D4FE08BD0000000C0240000800407C
:101750000000024000080240000401402DE9FC4165
:1017600005460C461646A0461248281A870A00BFAE
:101770004FEA680810480068401C0F490860B8F13B
:10178000000FF5D10121880305F0EEFA0A4A11781D
:10179000F8B205F069FC009401208DF806000020E5
:1017A0008DF804008DF805606846FFF72DFFBDE851
:1017B000FC81000000000240B001002070B5054629
:1017C0000C461648007D16490870084600782844E3
:1017D0001449486300BF14490868A4F11E01002899
:1017E00001DB024600E04242914201DC012200E0BE
:1017F000002204F11E018A42EDDC4FF480510B48B7
:1018000000F0ADF84FF47A7007F038FC4FF48051D7
:10181000064800F0A2F8FFF77BFC70BDEC0000204A
:10182000AA0100200000014000000020001002403A
:101830002DE9FC4104460D4616461F46DDF8208082
:101840004FF40031611A8A0A012101FA02F005F011
:101850005BFA00958DF8046003208DF805008DF883
:1018600006708DF807806946204600F002F8BDE852
:10187000FC81F0B50A4600210023002400BF3DE0B2
:10188000012505FA01F3156805EA03049C4234D1E9
:1018900005684F000326BE40B543056015794E002C
:1018A000B5400668354305601579012D02D01579DC
:1018B000022D16D185684F000326BE40B5438560D2
:1018C00055794E00B54086683543856045680126E8
:1018D0008E40B5434560456896798E40B6B2354333
:1018E0004560C5684F000326BE40B543C560D57945
:1018F0004E00B540C6683543C560491C1029BFD3AA
:10190000F0BDF0B5002300244D07ED0E02FA05F3FB
:10191000CE1000F1200555F826504E07F70E0F2681
:10192000BE40B543CF1000F1200646F82750CE1038
:1019300000F1200555F8265045EA0304CE1000F1C9
:10194000200545F82640F0BD0246002013690B40F3
:101950000BB1012000E000207047418370470183F4
:101960007047000008B500240025764B002276A1C0
:10197000784801F037FBE3E0724800231A46194625
:101980000090744801F08CFB73488079401C7249C8
:10199000887108468079092801DD012000E00020D7
:1019A00010B100206C49887100BF00BF00BFFEF776
:1019B0007FFC054600BF00BF68480078401C6749AF
:1019C000087000BF00BF2846FEF776FC00BF00BFCE
:1019D00000BF63480078152873D2DFE800F07F0B62
:1019E0000F44494F55666C737475767778797A7BB6
:1019F0007C7D7E0001205B49086070E00020594931
:101A0000086059480068052804DA5748006810F152
:101A1000050F18DA54480468002C01DD641F00E04B
:101A2000641D1E21514800F039FC022007F026FBFE
:101A300021464E4800F005FD022007F01FFBC8209C
:101A400007F01CFB0EE00A21484800F027FC0220AA
:101A500007F014FB0021454800F0F3FC022007F0DA
:101A60000DFB3CE000BF0121414805F05CFE36E083
:101A700040480068401D3F49086030E03D4800682C
:101A8000401F3C4908602AE03A480168374800F0A6
:101A900005FC022007F0F2FA37480168334800F0ED
:101AA000D0FC022007F0EAFA19E033480068401D34
:101AB0003149086013E030480068401F2E49086033
:101AC0000DE00BE00BE00AE009E008E007E006E0CB
:101AD00005E004E003E002E001E000E000BF00BF39
:101AE00000BF00BF00BFFEF7E3FB054600BF00BF1D
:101AF0001A480078401E1949087008460078A0B9B5
:101B00001E480088002809DD00BF00BF2846FEF7F8
:101B1000D3FB00BF00BF03F0C7FB0DE000BF00BF59
:101B20002846FEF7C9FB00BF06E000BF00BF2846FD
:101B3000FEF7C2FB00BF00BF00BF642007F09EFAA3
:101B40001AE700009C00002048616E646C655F53DA
:101B5000656D0000184E0020A0000020300200201B
:101B6000DD000020E800002038000020CC4E0020DE
:101B7000001400409C01002098010020F401002086
:101B800000BFFEE708B50020034601224021009077
:101B90000548FFF74DFE00200346012280210090FA
:101BA0000148FFF745FE08BD0004024008B50120CA
:101BB00000231A46402100901148FFF739FE01200A
:101BC00000231A46202100900D48FFF731FE012026
:101BD00000231A46102100900948FFF729FE012032
:101BE00000231A46082100900548FFF721FE012036
:101BF00000231A46042100900148FFF719FE08BD92
:101C00000014024000BF00BF00BF002497E04C4812
:101C10008078401C4A49887008468078092801DD90
:101C2000012000E0002010B100204549887000F03C
:101C300095F8062869D2DFE800F0680307365C6291
:101C400001204049086061E000203E4908603E48AC
:101C5000046825E0002C01DD641F00E0641D1E21E6
:101C60003A4800F01BFB022007F008FA21463748EB
:101C700000F0E7FB022007F001FA062C03DC1E212E
:101C8000324800F00BFB022007F0F8F900212F4842
:101C900000F0D7FB022007F0F1F9C82007F0EEF9B9
:101CA000002CD7D132E01421284800F0F7FA0220A6
:101CB00007F0E4F91421254800F0C3FB022007F0E7
:101CC000DDF9642007F0DAF900BF4FF08040416A87
:101CD0001F48006801EB00404EF6F441B0FBF1F202
:101CE00001FB12000128F0D80021184800F0A9FBE0
:101CF0000CE04FF480511748FFF72FFE06E04FF439
:101D000080511448FFF72BFE00E000BF00BF012107
:101D10001048FFF722FE4FF480410F48FFF71FFEE7
:101D2000642007F0ABF901210A48FFF718FE4FF4D1
:101D300080410948FFF711FE642007F09FF966E72C
:101D4000A0000020E800002038000020CC4E002039
:101D5000B0000020001002400008024010B54021F1
:101D60001148FFF7F1FD08B9012010BD20210E48F0
:101D7000FFF7EAFD08B90220F7E710210A48FFF74C
:101D8000E3FD08B90320F0E708210748FFF7DCFD71
:101D900008B90420E9E704210348FFF7D5FD08B995
:101DA0000520E2E70020E0E70014024070B586B0AD
:101DB00004460D46164601A9204607F0BFF93246F3
:101DC000294601A800F016F8202000F0FFF8202096
:101DD00000F0FCF806B070BD08B5002003460122F3
:101DE00040F2037100900248FFF722FD08BD000099
:101DF0000014024070B504460D461646314628468A
:101E000000F009F803E014F8010B00F0DFF8207887
:101E10000028F8D170BD70B504460D4604EB4400AF
:101E20004006040E05F1B001C8B205F03DF91021DD
:101E300001EB241005F038F904F00F0005F034F937
:101E400070BD00002DED048B00BF00BFFFF74BF904
:101E50007AE03E48C078401C3C49C8700846C078CB
:101E6000092801DD012000E0002010B100203749E1
:101E7000C87037480068C8214843C0EB0010800094
:101E80004EF6602190FBF1F0324908600968324A51
:101E90001268881A07F0B1FF9FED300B53EC102B3E
:101EA00007F024FE07F07AFF2E49086029480068F1
:101EB00029490860012211462BA0FFF79BFF4FF034
:101EC00080414A6A2B49096802EB014001220F2137
:101ED000FFF76CFF0222012127A0FFF78BFF0222F0
:101EE0000F2129480068FFF761FF0322012127A085
:101EF000FFF780FF03220F2127480068FFF756FFF6
:101F00000422012125A0FFF775FF04220F21264896
:101F10000068FFF74BFF0522012124A0FFF76AFFAD
:101F200005220F2125480068FFF740FF0622012106
:101F300023A0FFF75FFF06220F2123480068FFF769
:101F400035FF642007F09AF883E70000A000002026
:101F5000300000208C010020900100203333333307
:101F60003333D33F940100206C61745F456E636F1F
:101F700064657200B0000020696E69745F64697303
:101F800074616E63650000006C010020686F6C6511
:101F90005F636972636C65001C0000207370656587
:101FA000645F7265616C0000380000206765745FD3
:101FB00066696E616C646973000000005000002067
:101FC000636972636C6531002000002070B50446BF
:101FD000A4F12000C4B2002508E004EB8401064A05
:101FE0001144485D05F090F8681CC5B2052DF4DB7E
:101FF000002005F089F870BD3FA3000808B5022055
:1020000000230122082100901648FFF711FC02204E
:1020100000230122014600901348FFF709FC02202B
:1020200000230122114600900F48FFF701FC022017
:1020300000230122410300900C48FFF7F9FB08211F
:102040000848FFF78CFC02210748FFF788FC0121B4
:102050000548FFF784FC4FF480410448FFF77FFCFC
:1020600008BD0000000402400010024000080240C9
:1020700000BF7EE03F480078012877D13E48407994
:10208000401C3D49487108464079092801DD01207E
:1020900000E0002010B1002037494871374800792E
:1020A00010285CD2DFE800F008091017282F363D11
:1020B00043494F555657585A52E0314800883149E4
:1020C0004863FFF725F84BE02F4800882D49486307
:1020D000FFF71EF844E04FF480512C48FFF73FFC17
:1020E0004FF47A7006F0CAFF4FF480512748FFF78B
:1020F00034FCFFF70DF833E04FF47A702149486360
:10210000FFF706F82CE0224801881D480088FFF7F9
:1021100055FB25E01F4801881B480088FFF74EFB50
:102120001EE017480088401D1549088018E0144833
:102130000088401F1249088012E013480088401DA3
:10214000114908800CE00E480088401F0C490880A7
:1021500006E005E004E003E002E007E000E000BF85
:1021600000BF00200549087102490870142006F0DC
:1021700085FF7FE710010020A0000020EC00002078
:1021800044010020000001404601002000140240EC
:10219000480100204A01002000BFFEE730B5054697
:1021A0000C4622460021284600F001F830BD2DE9FA
:1021B000F04105460B4694460027002402E03F020A
:1021C0001F43641C042CFAD3604605F0030629461D
:1021D00046B1344603E001F8013B401E641C08B1DF
:1021E000042CF8D30A4601E080C2001F0428FBD269
:1021F000114602E001F8013B401E0028FAD1BDE87B
:10220000F081000008B5012208212248FFF779FB80
:10221000012209211F48FFF774FB01220A211D48F2
:10222000FFF76FFB01220B211A48FFF76AFB012021
:1022300000230222010200901648FFF7F9FA01205C
:1022400000230222410200901248FFF7F1FA012018
:1022500000230222810200900E48FFF7E9FA0120D4
:1022600000230222C10200900A48FFF7E1FA01238D
:10227000042244F62061084805F016FD4FF47A70F8
:10228000034602464FF4AF610090034805F07BFC23
:1022900008BD00000000024000000140FEB50446F9
:1022A0000D46009820F4C0500090009820F4C040E3
:1022B00000902179009861F306000090009820F4C6
:1022C000F06000F54070009006208DF80200617902
:1022D0008DF8031058218DF8041000218DF8051099
:1022E000A07968430290684604F03EFF06463046F7
:1022F000FEBDFEB504460D46009820F4C050009087
:10230000009820F4C04000902179009861F3060005
:102310000090009820F4F06000F5806000900820A4
:102320008DF8020061798DF803101E218DF80410DC
:1023300000218DF80510A8000290684604F014FFF3
:1023400006463046FEBDFEB504460D46009820F414
:10235000C0500090009820F4C0400090217900986F
:1023600061F306000090009820F4F06000F58060B2
:10237000009008208DF8020061798DF80310162175
:102380008DF8041000218DF80510A07968430290A3
:10239000684604F0E9FE06463046FEBDFEB504463A
:1023A0000D46009820F4C0500090009820F4C040E2
:1023B00000902179009861F306000090009820F4C5
:1023C000F06000F54070009006208DF80200617901
:1023D0008DF8031066218DF8041000218DF805108A
:1023E0000295684604F0C0FE06463046FEBD3EB586
:1023F0000446009820F4C0500090009820F4C0409B
:1024000000902179009861F306000090009820F474
:10241000F06000F54070009006208DF802006179B0
:102420008DF8031082218DF8041000218DF805101D
:102430004FF480700290684604F096FE05462846E8
:102440003EBDFEB504460D46009820F4C0500090F5
:10245000009820F4C04000902179009861F30600B4
:102460000090009820F4F06000F580600090082053
:102470008DF8020061798DF8031090218DF8041019
:1024800000218DF80510A07968430290684604F099
:102490006BFE06463046FEBD3EB50446009820F46D
:1024A000C0500090009820F4C0400090217900981E
:1024B00061F306000090009820F4F06000F5407091
:1024C000009006208DF8020061798DF803102A2112
:1024D0008DF8041000218DF8051000200290684648
:1024E00004F042FE054628463EBD7047F8B5064654
:1024F0000C4615468DF800608DF801408DF80250AD
:1025000001208DF80300684600F002F8F8BD0000D5
:1025100070B5002100230F22C4781CB3174C246827
:1025200004F4E064C4F5E064C4F30721C1F10404D9
:10253000E3B20A4144789C40E1B2847814402143DC
:102540000C07210E0E4C05786155047804F01F0528
:102550000124AC4005786D11AD0005F1E025C5F80A
:10256000004109E0047804F01F050124AC40054D4A
:102570000678761145F8264070BD00000CED00E0AD
:1025800000E400E080E100E002490143024A1160FA
:10259000704700000000FA050CED00E070470000F5
:1025A00010B50348006810B101480068804710BDAD
:1025B000D401002070B5044600F0B4F8002044496E
:1025C0000870444908704449087044490860444907
:1025D00008604449087044490870444908704449F7
:1025E000086044490860444908604448006858B19C
:1025F0004348056845B14148066803E0761E00205F
:1026000028602D1D002EF9D100203E4908603E496A
:1026100008603E4908603E4908603E4908603E49FE
:1026200008603E4908603E49087002F0C7FC02F0AD
:10263000A7FD204601F01EFE208800B170BD204697
:1026400002F0F2F9208800B1F8E7204602F0F8F92C
:10265000208800B1F2E7204602F0F4FA208800B1A9
:10266000ECE7204602F0DAFC208800B1E6E72046DD
:1026700002F088FE208800B1E0E7204603F0A2F9CE
:10268000208800B1DAE7204602F03AF9208800B14C
:10269000D4E7204601F060FF208800B1CEE7204655
:1026A00004F01CF9208800B1C8E7204603F0D4F8F4
:1026B000208800B1C2E7204604F074F9208800B1F8
:1026C000BCE701F001FDFFF769FF00BFB6E70000BE
:1026D000E8010020E90100203002002098020020DB
:1026E0009C02002016020020170200201802002081
:1026F00024020020280200202C0200204CA5000803
:1027000048A50008C8010020CC010020D00100200D
:10271000D4010020D8010020DC010020E0010020CD
:102720005E020020064800680649096800EB810047
:10273000054908600846006820F0070008607047F7
:1027400048A500084CA50008A00200200848007811
:10275000012800D0704707480078FA2800DBF9E725
:1027600004480078401C0349087000BFF2E70000ED
:10277000E9010020E801002010B500242D48007870
:10278000012800D010BD00BFFDF792FD044600BF38
:102790002948007828B900BF2046FDF78DFD00BF0D
:1027A000F0E725480078401E234908700846007865
:1027B000002805DD00BF2046FDF77EFD00BFE1E7F4
:1027C0001E480078002805DD00BF2046FDF774FD97
:1027D00000BFD7E702F0DEFB194908700846007811
:1027E00000EB4000174951F82000174908600846DF
:1027F000006816490968884205D100BF2046FDF7E8
:102800005BFD00BFBEE710480068D0F88400401CA4
:102810000D490968C1F884000D480068401C0C4946
:102820000860FDF7BBFD00BF2046FDF745FD00BF7A
:1028300000BFA7E7E9010020E801002030020020E6
:1028400017020020E46300209C0200209802002070
:10285000540200202DE9F04104460E46154600279B
:1028600029480078002804DD42F6E1602880BDE8B0
:10287000F0811CB945F6C3502880F8E700BF00BFBF
:1028800000BFFDF715FD074600BF00BF1F480078D9
:10289000401C1E49087000BF00BF3846FDF70CFD04
:1028A00000BF00BF00BF1A482060666000202062A1
:1028B00084F82500A062402084F8240004F1080078
:1028C00002F077FA204602F0A5F912480088401C71
:1028D0001049088000BF00BF00BFFDF7E9FC0746B4
:1028E00000BF00BF09480078401E0849087000BFBB
:1028F00000BF3846FDF7E0FC00BF00BF00BF00206E
:10290000288000BFB3E70000E8010020300200206B
:102910004D555458140200202DE9F04788B0054663
:10292000894690461C46109E4FF0000AAB4800783E
:10293000002805DD46F2AE10308008B0BDE8F08713
:102940001DB945F6C3503080F7E7B8F1000F03D04A
:10295000B8F5004F02D100E000BF03E045F6256066
:102960003080EAE700BF9E492868884203D045F6D8
:10297000C4503080E1E70CB10020206000BF00BFF0
:10298000FDF796FC824600BF00BF95F82500C0B950
:102990009448006828629348006890F8370085F8EA
:1029A0002400012085F825000CB1A86A206000BF32
:1029B00000BF5046FDF780FC00BF00BF0020308004
:1029C000BBE78849286A0968884212D195F8250032
:1029D000401C85F825000CB1A86A206000BF00BF2C
:1029E0005046FDF769FC00BF00BF45F282703080A1
:1029F000A3E708F4004050B100BF00BF5046FDF708
:102A00005BFC00BF00BF46F2B010308095E776480F
:102A1000007800280ADD00BF00BF5046FDF74CFCDF
:102A200000BF00BF46F66350308086E700BF6E48A7
:102A30000078401C6C49087000BF00BF5046FDF78D
:102A40003BFC00BF00BF00BF2F6A97F83700654905
:102A5000096891F83710884260DD97F83600082839
:102A60002AD2DFE800F004151E1F17162021384671
:102A700002F0ECFB5B48006890F8370087F83700FD
:102A800097F8370002F0A6FA384602F0A1FB44E0BE
:102A900000BF00BF5348006890F8370087F8370040
:102AA0003BE000BF00BF00BF4E48006890F8371001
:102AB000384602F05BF930E000BF00BF00BFFDF711
:102AC000F7FB824600BF00BF47480078401E4649DA
:102AD000087008460078A0B944480088002809DD3D
:102AE00000BF00BF5046FDF7E7FB00BF00BF02F08C
:102AF000DBFB0DE000BF00BF5046FDF7DDFB00BF74
:102B000006E000BF00BF5046FDF7D6FB00BF00BF88
:102B100000BF46F62D6030800FE700BF4B46042211
:102B20002946684602F09AF800BF00BF00BFFDF7D3
:102B3000BFFB824600BF00BF2B480078401E2A49D9
:102B4000087000BF00BF5046FDF7B6FB00BF00BFD6
:102B500000BF00F073F900BF00BFFDF7A9FB82467C
:102B600000BF00BF1F48006890F8350030B1012851
:102B70000CD002281AD0032821D110E01CB119482A
:102B80000068006C2060002030801CE01CB11548FB
:102B90000068006C206046F2A910308013E00CB190
:102BA0000020206047F2D92030800CE01CB10D4895
:102BB0000068006C206045F6C250308003E046F6A5
:102BC0002E60308000BF00BF00BF00BF5046FDF741
:102BD00073FB00BF00BF00BFAFE60000E8010020AC
:102BE0004D5554589802002030020020F401002076
:102BF0002DE9F84F0446884615464FF0000A8948EB
:102C00000078002804DD46F20E202880BDE8F88F09
:102C10001CB945F6C3502880F8E7B8F1000F03D07F
:102C2000B8F5004F02D100E000BF03E045F6256093
:102C30002880EBE700BF7C492068884203D045F636
:102C4000C4502880E2E700BF00BFFDF731FB824699
:102C500000BF00BF7549206A096888420AD000BFDA
:102C600000BF5046FDF728FB00BF00BF45F2817052
:102C70002880CBE700BF6E480078401C6C49087084
:102C800000BF00BF5046FDF717FB00BF00BF00BFED
:102C9000FEF71AFA0746A76294F82500401E84F84A
:102CA000250094F82500002830DD00BF00BF00BFDC
:102CB000FDF7FEFA824600BF00BF5D480078401E67
:102CC0005B49087008460078A0B95A480088002877
:102CD00009DD00BF00BF5046FDF7EEFA00BF00BFA0
:102CE00002F0E2FA0DE000BF00BF5046FDF7E4FA43
:102CF00000BF06E000BF00BF5046FDF7DDFA00BF91
:102D000000BF00BF45F2837028807FE704F1080907
:102D1000B9F8080098BB0020206284F8250000BFA5
:102D200000BF00BFFDF7C4FA824600BF00BF4048A5
:102D30000078401E3E49087008460078A0B93D481A
:102D40000088002809DD00BF00BF5046FDF7B4FA37
:102D500000BF00BF02F0A8FA0DE000BF00BF504660
:102D6000FDF7AAFA00BF06E000BF00BF5046FDF71E
:102D7000A3FA00BF00BF00BF0020288046E7FFE79E
:102D80002A48006890F8370094F82410884219D037
:102D90002648006802F05AFA94F82400234909688A
:102DA00081F837002149096891F8370002F012F9DB
:102DB0001E48006802F02CFA1C48006890F83700A2
:102DC0001D490870D9F800008668266296F8370019
:102DD00084F82400012084F8250000231A46314697
:102DE0002046009702F056F800BF00BF00BFFDF775
:102DF0005FFA824600BF00BF0D480078401E0C49B4
:102E0000087000BF00BF5046FDF756FA00BF00BF74
:102E100000BF08F4004008B900F010F80020288036
:102E200000BFF3E6E80100204D55545898020020F9
:102E300030020020F40100201602002010B500240A
:102E40001F480078002800DD10BD1E4800780028CB
:102E500000DDF9E700BFFDF72BFA044600BF02F0E2
:102E600099F8194908700846007800EB40001749A6
:102E700051F820001649086008460068154909689D
:102E8000884205D100BF2046FDF716FA00BFDBE7F8
:102E90000F480068D0F88400401C0D490968C1F84B
:102EA00084000D480068401C0B490860FDF771FA6A
:102EB00000BF2046FDF700FA00BF00BFC4E70000D6
:102EC000E80100203002002017020020E463002007
:102ED0009C020020980200205402002070B5044695
:102EE000002518480078002803DD46F6625020804F
:102EF00070BD15480078012803D045F68960208010
:102F0000F6E712480078FA2803DB45F20920208012
:102F1000EEE700BF00BFFDF7CBF9054600BF00BFDD
:102F20000A480078401C0949087002F0E7F900BF20
:102F300000BF2846FDF7C0F900BF00BF0020208079
:102F400000BFD5E7E8010020E901002030020020A1
:102F500070B50446002520480078002803DD46F6B9
:102F60006550208070BD1D480078012803D045F6CB
:102F700089602080F6E71A48007818B946F6645050
:102F80002080EFE700BF00BFFDF792F9054600BFC4
:102F900000BF13480078401E1149087008460078A9
:102FA00000280ADD00BF00BF2846FDF785F900BFF5
:102FB00000BF46F663502080D4E702F0ADF900BFB1
:102FC00000BF2846FDF778F900BF00BFFFF736FFC6
:102FD0000020208000BFC5E7E8010020E9010020B3
:102FE000300200202DE9F04104460E4617461D46EA
:102FF0004FF0000826480078002804DD42F6E16022
:103000002880BDE8F0811CB945F6C3502880F8E758
:1030100000BF00BF00BFFDF74BF9804600BF00BFF7
:103020001C480078401C1B49087000BF00BF404688
:10303000FDF742F900BF00BF00BF174820602762BC
:1030400000206062666004F1080001F0B2FE2046D4
:1030500002F080F911480088401C1049088000BF28
:1030600000BF00BFFDF724F9804600BF00BF09483C
:103070000078401E0749087000BF00BF4046FDF7BA
:103080001BF900BF00BF00BF0020288000BFB8E7C9
:10309000E80100203002002053454D413802002055
:1030A0002DE9F04788B00646894690461C46109D9B
:1030B0004FF0000A6E480078002806DD46F2AE1098
:1030C0002880002008B0BDE8F08726B945F6C35037
:1030D00028800020F6E7B8F1000F03D0B8F5004FC4
:1030E00002D100E000BF04E045F625602880002002
:1030F000E8E700BF5F493068884204D045F6C45015
:1031000028800020DEE70CB10020206000BF00BF57
:10311000FDF7CEF8824600BF00BF306A88B1306A42
:10312000401E30620CB1706A2060376A00BF00BF79
:103130005046FDF7C1F800BF00BF00202880384688
:10314000C0E708F4004060B1376A00BF00BF5046D6
:10315000FDF7B2F800BF00BF46F2B0102880384635
:10316000B0E74548007800280BDD00BF00BF50469F
:10317000FDF7A2F800BF00BF46F66350288000208C
:10318000A0E700BF3C480078401C3B49087000BFE6
:1031900000BF5046FDF790F800BF00BF00BF4B4690
:1031A00006223146684601F059FD00BF00BF00BF4E
:1031B000FDF77EF8824600BF00BF2F480078401E12
:1031C0002D49087000BF00BF5046FDF775F800BFDD
:1031D00000BF00BFFFF732FE00BF00BFFDF768F879
:1031E000824600BF00BF2548006890F8350030B126
:1031F00001280CD002281AD0032821D110E01CB1DC
:103200001E480068006C20600020288024E01CB16B
:103210001A480068006C206046F2A91028801BE064
:103220000CB10020206047F2D920288014E01CB1A6
:1032300012480068006C206045F6C25028800BE000
:1032400046F62E60288000BF00BF5046FDF734F8D8
:1032500000BF00BF002035E700BF376A00BF00BFD6
:103260005046FDF729F800BF00BF38462AE70000A6
:10327000E801002053454D41300200209802002013
:103280002DE9FF4105460F46144635B945F6C350B2
:103290002080002004B0BDE8F0814FB1B7F5007F79
:1032A00007D0B7F5004F05D0B7F5024F04D102E0C3
:1032B00000BF00BF00BF04E045F62560208000206D
:1032C000E8E700BF12492868884204D045F6C45098
:1032D00020800020DEE7FDF7F7FE06460D48007867
:1032E00000280CDD0020034602462946CDE9017680
:1032F00003940090064801F067F90020CAE72346CE
:1033000032463946284602F049F880464046C1E731
:1033100053454D41E801002010B50446124800789D
:10332000E8B901F037FE11490870084600781049E5
:1033300008700E48007800EB40000E4951F820005C
:103340000D490860084600680C49086001200649DC
:103350000870FDF70DF843F69920208002E045F64D
:103360008A60208010BD0000E901002017020020C3
:1033700016020020E46300209C0200209802002036
:103380002DE9F04107464FF0000800BF00BFFCF7F1
:103390008FFF804600BF00BF00203D4908603D49C7
:1033A00008803D4908803D4908603D4908603D4925
:1033B00008603D4908603D49088100BF00BF4046A4
:1033C000FCF77AFF00BF00BF00BF00BFFCF770FF33
:1033D000804600BF00BF3648046800BF00BF4046BB
:1033E000FCF76AFF00BF00BF21E000BF00BFFCF791
:1033F0005FFF804600BF00BF00206C34E0632060A8
:103400002063A061A082E0826062A062FDF75CFEA2
:1034100020626C3C04F158060020B081D4F8B04022
:1034200000BF00BF4046FCF747FF00BF00BF002CB5
:10343000DBD100BF00BFFCF73BFF804600BF00BFF1
:103440001C48056800BF00BF4046FCF735FF00BFC1
:1034500000BF12E000BF00BFFCF72AFF804600BF9C
:1034600000BF05F120060020B081AD6900BF00BF9C
:103470004046FCF721FF00BF00BF002DEAD103F05A
:1034800095F803F035FB00203880BDE8F08100009E
:10349000FC010020F60100203E0200205002002026
:1034A000640200208802002028020020D863002047
:1034B000580200201C02002010B50348006810B11B
:1034C00001480068804710BDD80100202DE9FF4F5A
:1034D00087B004469046DDE91BA5DDE91496179FE9
:1034E0000020039082480078002805DD47F24A104A
:1034F00028800BB0BDE8F08F1CB947F2AD102880D2
:10350000F7E7B8F1000F03D147F24F102880F0E73A
:103510001EB946F62F602880EBE7764800688742A0
:1035200003D246F630602880E3E71698B84203D30A
:1035300046F631602880DCE7B9F1400F03D346F24C
:1035400073202880D5E7B9F1000F06D16A4884427C
:1035500003D046F273202880CBE7B9F13F0F06D1A4
:103560006648844203D046F273202880C1E7204693
:1035700002F038FA002028800AF0010090B10AF029
:10358000020078B105960020069008E00021059819
:1035900001600598001D05900698401C069006984D
:1035A000B842F3D3169806EB80000490CDE9007A78
:1035B00032464046049B0A9900F062FB0590C4F82D
:1035C00028800A98E0620898206284F8379005986D
:1035D00020600498A0601A9860606662A763A4F8EF
:1035E0003CA04FF0000B08E0002104F1700040F80F
:1035F0002B100BF1010000F0FF0BBBF1000FF3D01B
:1036000004F15800189901F07BFA204600F080F888
:1036100000BF00BF00BFFCF74BFE039000BF00BF20
:1036200037480078401C3649087000BF00BF039837
:10363000FCF742FE00BF00BF00BF94F8370001F066
:10364000C9FC204601F0E4FD204602F081F92D4836
:103650000088401C2B4908802B48007801282DD079
:1036600000BF00BF00BFFCF723FE039000BF00BFF8
:1036700023480078401E2249087008460078A0B907
:1036800022480088002809DD00BF00BF0398FCF72E
:1036900013FE00BF00BF01F007FE0DE000BF00BF3A
:1036A0000398FCF709FE00BF06E000BF00BF0398C7
:1036B000FCF702FE00BF00BF00BF1AE700BF00BF5B
:1036C00000BFFCF7F5FD039000BF00BF0C48007879
:1036D000401E0B49087000BF00BF0398FCF7ECFDCB
:1036E00000BF00BF00BFFFF7A9FB00BF01E700005C
:1036F000E801002078A5000820630020686200200F
:10370000300200205C020020E9010020F4010020CA
:1037100010B504460348006818B1204601490968FD
:10372000884710BDC801002070B504460D4600262C
:1037300067480078002803DD47F24E10288070BDEE
:103740006448844203D147F24C102880F7E762486E
:10375000844203D147F24D102880F0E77CB900BFC6
:1037600000BFFCF7A5FD064600BF00BF5B4804682C
:1037700000BF00BF3046FCF79FFD00BF00BF00BF89
:1037800000BF00BFFCF794FD064600BF00BF5448D1
:103790000078401C5249087000BF00BF3046FCF75B
:1037A0008BFD00BF00BF00BF94F8360008282DD263
:1037B000DFE800F004090E10080A0F11204601F09E
:1037C00045FD54E053E000BF204602F0C3FE4EE04A
:1037D00000BF00BF00BF94F83400082810D2DFE813
:1037E00000F004070508090A0B0600BF00BF08E047
:1037F00000BF00BF00BF00BF204601F012FB00E089
:1038000000BF00BF204602F0A5FE30E000BF00BFB1
:1038100000BFFCF74DFD064600BF00BF30480078F2
:10382000401E2F49087008460078A0B92D4800882E
:10383000002809DD00BF00BF3046FCF73DFD00BF9A
:1038400000BF01F031FD0DE000BF00BF3046FCF7C6
:1038500033FD00BF06E000BF00BF3046FCF72CFD83
:1038600000BF00BF00BF46F62D60288067E700BF9D
:1038700004F1580001F022F9204600F037F8204604
:1038800002F07EF818480088401E1749088020463C
:1038900002F0A8F8FF2084F8360000BF00BF00BF88
:1038A000FCF706FD064600BF00BF0D480078401E2D
:1038B0000B49087000BF00BF3046FCF7FDFC00BF9D
:1038C00000BF00BF00202880FFF7B8FA00BF36E72E
:1038D000E801002068620020206300209802002098
:1038E00030020020F40100205C02002010B50446E4
:1038F0000348006818B1204601490968884710BD8F
:10390000CC0100207FB504460D46002600BF00BF55
:10391000FCF7CEFC064600BF00BF1CB1154800688E
:1039200084420AD100BF00BF3046FCF7C5FC00BF8F
:1039300000BF47F2571028807FBD00BF00BF304650
:10394000FCF7BAFC00BF00BF0B48007800280BDD75
:10395000002000900190034602462146CDE9020571
:10396000064800F031FEE7E72946204602F09AF9C2
:1039700000BFE1E798020020E801002054524553BF
:1039800010B504460348006818B12046014909688B
:10399000884710BDD00100202DE9F04780460E4633
:1039A00014461D464FF000097D480078002805DDCB
:1039B00046F2AE1028800020BDE8F0871EB1B6F5B3
:1039C000004F02D100E000BF04E045F625602880EA
:1039D0000020F1E700BF0CB10020206000BF00BF55
:1039E000FCF766FC814600BF00BF6E480068406C73
:1039F000A8B36C480068406C401E6A490968486476
:103A000068480068476C1CB166480068006C20601C
:103A1000FDF75AFB63490968096C401A6149096856
:103A2000C1F898005F480068D0F89C005D490968BB
:103A3000D1F89810884207D25A480068D0F8980008
:103A400058490968C1F89C0000BF00BF4846FCF710
:103A500033FC00BF00BF002028803846ACE7FFE7FA
:103A600006F4004058B100BF00BF4846FCF724FCF4
:103A700000BF00BF46F2B010288000209CE74A48F3
:103A8000007800280BDD00BF00BF4846FCF714FC9F
:103A900000BF00BF46F66350288000208CE700BFBF
:103AA00041480078401C4049087000BF00BF4846AC
:103AB000FCF702FC00BF00BF00BF43460722002105
:103AC000084601F0CBF800BF00BF00BFFCF7F0FBD9
:103AD000814600BF00BF34480078401E324908705C
:103AE00000BF00BF4846FCF7E7FB00BF00BF00BFB8
:103AF000FFF7A4F900BF00BFFCF7DAFB814600BF67
:103B000000BF2848006890F8350020B1012826D071
:103B1000032834D12CE0FCB122480068006C2060FE
:103B2000FDF7D2FA1F490968096C401A1D49096856
:103B3000C1F898001B480068D0F89C001949096832
:103B4000D1F89810884207D216480068D0F898003B
:103B500014490968C1F89C000020288013E01CB1BA
:103B600010480068006C206046F2A91028800AE026
:103B70000CB10020206047F2D920288003E046F6EF
:103B80002E60288000BF00BF06480068476C00BF59
:103B900000BF4846FCF790FB00BF00BF38460BE76C
:103BA000E801002098020020300200202DE9F047B3
:103BB00005460E4617461C464FF0000A2E48007870
:103BC000002804DD47F259102080BDE8F0871EB9B7
:103BD00046F2D5202080F8E71FB946F2D520208094
:103BE000F3E700BF00BFFCF763FB824600BF00BFE6
:103BF0000DB922480568286868B900BF00BF504663
:103C0000FCF75AFB00BF00BF00203060386047F26D
:103C100052102080D9E795F83C0000F0010068B907
:103C200000BF00BF5046FCF747FB00BF00BF0020AD
:103C30003060386047F254102080C6E700BF00BFF4
:103C40005046FCF739FB00BF00BF4FF00008D5F825
:103C5000249003E009F1040908F10108D9F80000F3
:103C60000028F7D0C6F80080A86BA0EB08003860E9
:103C70000020208000BFA8E7E80100209802002073
:103C8000F0B50446DDE9055602EB850020F007009B
:103C90004FF0000C071F3846C7F800C04FF4805C97
:103CA000071F3846C7F800C04FF0150C071F3846ED
:103CB000C7F800C04FF0140C071F3846C7F800C003
:103CC0004FF0130C071F3846C7F800C04FF0120C16
:103CD000071F3846C7F800C04FF0110C071F3846C1
:103CE000C7F800C04FF0100C071F3846C7F800C0D7
:103CF0004FF0090C071F3846C7F800C04FF0080CFA
:103D0000071F3846C7F800C04FF0070C071F38469A
:103D1000C7F800C04FF0060C071F3846C7F800C0B0
:103D20004FF0050C071F3846C7F800C04FF0040CD1
:103D3000071F3846C7F800C04FF0030C071F38466E
:103D4000C7F800C04FF0020C071F3846C7F800C084
:103D50004FF0010C071F3846C7F800C04FF0000CA9
:103D6000071F3846C7F800C04FF0807C071F384651
:103D7000C7F800C0071F38463C60DFF85CC1071F6A
:103D80003846C7F800C04FF0123C071F3846C7F846
:103D900000C04FF0033C071F3846C7F800C04FF083
:103DA000023C071F3846C7F800C0071F38463B6073
:103DB000071F384639604FF0310C071F3846C7F8E7
:103DC00000C04FF0300C071F3846C7F800C04FF056
:103DD000290C071F3846C7F800C04FF0280C071FF2
:103DE0003846C7F800C04FF0270C071F3846C7F801
:103DF00000C04FF0260C071F3846C7F800C04FF030
:103E0000250C071F3846C7F800C04FF0240C071FC9
:103E10003846C7F800C04FF0230C071F3846C7F8D4
:103E200000C04FF0220C071F3846C7F800C04FF003
:103E3000210C071F3846C7F800C04FF0200C071FA1
:103E40003846C7F800C04FF0190C071F3846C7F8AE
:103E500000C04FF0180C071F3846C7F800C04FF0DD
:103E6000170C071F3846C7F800C04FF0160C071F85
:103E70003846C7F800C04FF0113C071F3846C7F856
:103E800000C04FF0103C071F3846C7F800C04FF085
:103E9000093C071F3846C7F800C04FF0083C071F11
:103EA0003846C7F800C04FF0073C071F3846C7F830
:103EB00000C04FF0063C071F3846C7F800C04FF05F
:103EC000053C071F3846C7F800C04FF0043C071FE9
:103ED0003846C7F800C0F0BDE55D000810B51D48C4
:103EE000006810B11B4800688047FDF7EDF80446F4
:103EF0001948006819490968884215D016480068B1
:103F0000D0F88C00201A14490968C1F888001248BA
:103F10000068D0F8900010490968D1F8881008446A
:103F20000D490968C1F890000C480068C0F88C4041
:103F300009480068D0F8A80009490968884205D2F4
:103F40000748006804490968C1F8A800002004492E
:103F5000086010BDDC010020980200209C020020B7
:103F60002C0200202DE9F04105460E46144600279C
:103F70003C480078002804DD47F275202080BDE829
:103F8000F08139480078002803DD46F66350208030
:103F9000F5E736B1022E05D0042E0AD0082E09D13D
:103FA00001E000BF00BF1DB947F27E202080E6E798
:103FB00004E003E045F625602080E0E700BF00BF95
:103FC00000BF00BFFCF774F9074600BF00BF2648DA
:103FD0000078401C2449087000BF00BF3846FCF739
:103FE0006BF900BF00BF00BF2346324629461F4879
:103FF000006802F051FA2088A8B100BF00BF00BFDE
:10400000FCF756F9074600BF00BF17480078401E6E
:104010001549087000BF00BF3846FCF74DF900BFD6
:1040200000BF00BFABE71148006801F00FF900BF07
:1040300000BF00BFFCF73CF9074600BF00BF0A48BD
:104040000078401E0849087000BF00BF3846FCF7E2
:1040500033F900BF00BF00BFFEF7F0FE0020208054
:1040600000BF8CE7E8010020300200209802002009
:1040700010B586B000F01EF8FDF726F8044605A836
:1040800000210091CDE9011403900748007800EB6E
:104090004000064A02EB800100231A46044800F063
:1040A00093FA06B010BD000016020020E463002061
:1040B0005449434B10B50348006810B101480068EB
:1040C000804710BDE0010020244A2549254A264AA0
:1040D0002649274A2748284A284A294A294A2A4855
:1040E0002A482B482B4A2C482C4A2D482D4A2E482A
:1040F0002E482F482F48304A304A314A3148324AF8
:10410000324A3348334834483448354835483648CD
:10411000364A374A374A384A3848394839483A4A95
:104120003A4A3B4A3B483C483C483D493D483E4A68
:104130003E4A3F4A3F4A404A404A414A4148424A31
:10414000424A43484348444A444A4548454A464A05
:104150004648474800BF00BF00BF7047B0A50008F1
:1041600014A70008B1A50008B2A50008B4A500086E
:10417000B8A50008BCA50008B9A50008E4A500087A
:10418000E5A50008E6A50008E8A50008EAA50008DE
:10419000ECA50008EEA50008F0A5000810A6000890
:1041A00012A6000814A6000816A6000818A6000803
:1041B0001AA600081CA6000848A6000849A6000880
:1041C0004AA600084CA600084EA600084FA6000804
:1041D00050A6000852A6000854A6000856A60008DB
:1041E00058A600085AA600085CA600088CA600087D
:1041F0008DA600088EA600088FA6000890A60008CD
:1042000092A6000894A60008BCA60008BDA6000857
:10421000BEA60008BFA60008C0A60008C2A60008E7
:10422000C4A60008C8A60008C9A60008CAA60008B7
:10423000CBA60008CCA60008CDA60008CEA6000894
:10424000CFA60008D0A60008D2A60008D3A6000872
:10425000D4A60008D6A60008D8A60008D9A600084B
:10426000DCA600080CA700080DA700080EA7000890
:1042700010A700080021034A1160034A1180018041
:104280007047000000020020040200202DE9F04FDA
:1042900085B00446894692469B46DDF8388000206A
:1042A000009000BF00BFFCF703F8009000BF00BF04
:1042B000BAF1000F0AD0BAF1010F0DD0BAF5004FD4
:1042C00005D06FF40040504460B906E000BF206A9A
:1042D00040EA0900206214E000BF206A20EA0900D9
:1042E00020620EE000BF00BF0098FBF7E5FF00BFB3
:1042F00000BF45F62560A8F80000002005B0BDE825
:10430000F08F00BFC4F824B004F1080001900198B8
:10431000008958B900BF00BF0098FBF7CDFF00BF70
:1043200000BF0020A8F80000206AE7E700BF5E4851
:104330000078401C5C49087000BF00BF0098FBF784
:10434000BBFF00BF00BF00BF01980768BD6879E0F0
:104350007868029095F87C0000F00F0003900398B5
:1043600001281ED0022829D0042802D0082830D1E4
:104370000CE0206A696F00EA0106686FB04204D160
:104380005A463146284600F093F855E0206A696F96
:1043900000EA010626B15A463146284600F088F860
:1043A0004AE0686F216A20EA0106686FB04204D1D2
:1043B0005A463146284600F07BF83DE0686F216A96
:1043C00020EA010626B15A463146284600F070F828
:1043D00032E000BF00BF00BFFBF76AFF009000BFE4
:1043E00000BF31480078401E2F4908700846007809
:1043F000A0B92E480088002809DD00BF00BF009842
:10440000FBF75AFF00BF00BF00F04EFF0DE000BFFA
:1044100000BF0098FBF750FF00BF06E000BF00BFE1
:104420000098FBF749FF00BF00BF00BF43F6FF2025
:10443000A8F80000002061E700BF029F0FB1BD682F
:1044400000E00025002D83D100BF00BF00BFFBF7B7
:104450002FFF009000BF00BF13480078401E124994
:10446000087000BF00BF0098FBF726FF00BF00BF29
:1044700000BF0AF4004008B9FEF7E0FC00BF00BF2F
:10448000FBF716FF009000BF00BF206A049000BF3A
:1044900000BF0098FBF710FF00BF00BF0020A8F886
:1044A000000004982AE7000030020020F4010020F8
:1044B00070B504460E4615463434666400206070BC
:1044C0002070E560A078343C08281DD2DFE800F0B9
:1044D000040508090706171800BF00BF00BF14E055
:1044E00000BF94F83600032802D1204602F032F8CB
:1044F000204600F057FE002084F8360005E000BF9B
:10450000042084F8360000E000BF00BF204600F021
:1045100088FC70BD002419E000BF00BFFBF7C8FE97
:10452000044600BF00BF0A480068401C08490860F4
:1045300008480068401C0749086000BF00BF2046CB
:10454000FBF7BAFE00BF00BFFEF72AF8E4E7000061
:10455000E40100204002002010B58AB0044600208B
:104560000E4908600B2000210591CDE90704069152
:1045700008460B4909680B4A12680B4B1B68CDE9CA
:104580000132CDE903103F200023084A08A1009022
:104590000C48FEF79BFF0AB010BD0000E4010020AC
:1045A00024A5000820A500081CA500081545000842
:1045B00075432F4F532D4949492049646C65205458
:1045C00061736B00686200202DE9F84F04460D46C8
:1045D00016461F46DDE90BABDDF82890DDF8348088
:1045E0000020009000BF00BFFBF762FE009000BFFC
:1045F00000BF2B4800882B49098888423EDA2848AA
:104600000088401C2649088027480088098888427D
:1046100003DA23480088244908802448006804609D
:1046200022480068856021480068C6601F4800680D
:1046300007821E480068C0F814901C480068A0F863
:1046400018A01A480068C0F81CB0184800684068F4
:10465000164908600120164908811648086048601C
:10466000002000F0B7FC1448007818B11248007818
:10467000124908700020A8F8000008E010480088DF
:10468000401C0F49088044F25360A8F8000000BFA6
:1046900000BF0098FBF710FE00BF00BFBDE8F88F19
:1046A000F401002030A50008F6010020EC010020F4
:1046B000E46300202063002016020020180200207E
:1046C000F80100203EB555480068554A0168881A2F
:1046D000914279D00FDC5348084400283ED052491B
:1046E0000844A8B151490844002860D05049084402
:1046F00000286AD13FE04F490844002850D04E4975
:104700000844002862D04D4908440028F1D110E047
:1047100002A8424D00902D68EB69404D2D682A8B10
:104720003E4D2D6869693D4D2D68A868FFF7AEFDC7
:1047300071E002A939480068C069384DCDE900012F
:104740002D682B8B354D2D682A8A344D2D68E968EC
:10475000324D2D68A86800F06DFC5CE02F4B1B68A3
:10476000DA692E4B1B68198B2C4B1B68986802ABBF
:1047700000F014FE4FE002A928480068C069274DE8
:10478000CDE900012D682B8B244D2D682A8A234DFD
:104790002D68E968214D2D68A86801F07DF93AE09F
:1047A0001E490968886802A901F07CFA33E01B4BB6
:1047B0001B68DA69194B1B68198B184B1B689868C2
:1047C00002AB01F01BFB26E007E023E01349096878
:1047D000886802A901F074FD1DE01048006802AB72
:1047E0000021C269164801F009FB16480068401E06
:1047F000144908600846006858B913480068086002
:10480000FCF762FC044602AB224600210F4801F08F
:10481000F5FA00E000BF00BF3EBD0000F00100203F
:104820005449434BADBAB2BE0DF90BFAF2F8F7FF9B
:104830000006F6FF00F7FDF700FFEFFF03FE0FFE97
:104840009C670020940200209002002080680020D5
:1048500000274CE0002648E000BF00BFFBF728FD22
:10486000074600BF00BF2248008888B900202149C0
:1048700008810860486000F0BFFB00BF00BF3846F9
:10488000FBF71AFD00BF00BFFEF7D8FA01262CE0A7
:1048900000BF00BF3846FBF70FFD00BF00BFFCF7AD
:1048A00013FC0546FFF70EFFFCF70EFC441B1248F5
:1048B0000068A04201D21048046000BF00BFFBF7AF
:1048C000F7FC074600BF00BF0C48006840680B4972
:1048D000086007480088401E0549088000BF00BFE7
:1048E0003846FBF7E9FC00BF00BF002EB4D0B1E7AB
:1048F000F4010020E4630020FC010020F00100200E
:10490000F0B589B00546002031490880314800687B
:1049100020B944F25260288009B0F0BD2E480088CA
:10492000022803DA44F254602880F5E700202B497E
:104930000860284804682646203600270CE02848EE
:1049400020600020A060E0602082606120836660BB
:1049500020342036781C87B21F4800888742EEDB5F
:10496000203C1C48066866601E4806601E480660BB
:1049700000201E4908801E4908801E48006818B99A
:1049800044F255602880C7E71B4800681B49096846
:10499000884203D244F256602880BDE703200021FC
:1049A0000591CDE90705069113480068144A12687D
:1049B000104B1B68CDE90301CDE9013200910B4694
:1049C000104A11A11748FEF781FD00BFA4E70000BF
:1049D000F80100202CA5000830A50008FC010020EB
:1049E0004E4F4E45EC010020F0010020F401002064
:1049F000F601002038A5000840A5000878A50008A9
:104A00003CA500085148000875432F4F532D4949D4
:104A10004920495352205175657565205461736B67
:104A200000000000206300200021034A1160034AB7
:104A30001180018070470000080200200C02002055
:104A400070B501461A4D2D681DB945F21E750D80D1
:104A500070BD184D2D881DB945F21D750D80F7E705
:104A6000134D28682A681032124D2D886D1EACB285
:104A7000002308E00260002545600581C560103014
:104A800010325D1CABB2A342F4DB0025056045602B
:104A90000581C560064D2D68074E3560054D2D8892
:104AA000B5800025F58035810D8000BFD0E700007E
:104AB0005CA5000854A50008D863002010B5014685
:104AC00048894B89002B17DD0A680C4B1B68136063
:104AD0000A4C4B6823602346DB884C891B1B074C20
:104AE000E38023469B884C892344044CA380002305
:104AF0004B818B810B604B6010BD0000D8630020A0
:104B00000181002242818281026042607047000080
:104B10002DE9F0410D46DDE90674B0F80AC0B0F8A1
:104B20000880C44505DB46F2935CA4F800C0BDE8EC
:104B3000F081DFF8DCC0BCF804C0BCF1000F04D188
:104B400045F21D7CA4F800C0F1E7DFF8C4C0DCF832
:104B50000010DFF8BC80D1F800C0C8F800C0C4461F
:104B6000BCF804C0ACF1010CA8F804C0C446BCF801
:104B700006C00CF1010CA8F806C0C446BCF808C079
:104B8000B8F80680C44507DADFF884C0BCF806C070
:104B9000DFF87C80A8F808C0B0F80AC0BCF1000FAC
:104BA0000AD1016041604FF0010CA0F80AC04FF03B
:104BB000000CC1F800C017E003F0100CBCF1000FAE
:104BC00007D10668316001604FF0000CC1F800C0E9
:104BD00004E0D0F804C0C1F800C04160B0F80AC0D9
:104BE0000CF1010CA0F80AC0B0F80CC0B0F80A80B3
:104BF000C44503DAB0F80AC0A0F80CC04D600A81C1
:104C0000CF604FF0000CA4F800C000BF8FE7000099
:104C1000D863002009A1C1610021416108490968E8
:104C200011B90021816105E00549096881610449E4
:104C300009684861024908607047000020000000D0
:104C4000100200200021034A1160034A11800180F4
:104C50007047000010020020140200202DE9F041EE
:104C600005460C4616461F461548006880F8346015
:104C700000201349096881F835003946104800685A
:104C800000F050FE6CB104F10808EC6001222946E6
:104C90000B48006800F016F82946404600F08EF8F0
:104CA00006E0002006490968C887054909680863C5
:104CB00003480168204600F019F8BDE8F0810000C3
:104CC0009802002010B5C287016300230AE0002487
:104CD0004C600C600C614C610C83CC6188602031AD
:104CE0005C1CA3B29342F2DB10BD000030B548B1AA
:104CF0004568C1F8B45000F10804226893681D6A41
:104D0000C56113E091F83450022D02D0072D08D16F
:104D100003E007A5C1F8B45007E007A5C1F8B450F7
:104D200003E008A5C1F8B45000BF00BF30BD0000CB
:104D30005461736B205100005461736B2053656D97
:104D4000000000002000000030B507A5C1F8B450F5
:104D500000F1080422681AB193681D6AC56101E078
:104D600001A5C56130BD0000200000002DE9F04321
:104D700004460F4684F83770256BB4F83E8013E084
:104D8000D5F80C9009F108063089012807D9294681
:104D9000304600F05EF82946304600F00FF8203526
:104DA000A8F101001FFA80F8B8F1000FE8D1BDE8C2
:104DB000F08300210160416001817047F0B58E6889
:104DC00096F8375007893FB90127078100274F60C0
:104DD0000F600160416023E007897F1C0781026842
:104DE00006E0946894F83770AF4200DD02E0526844
:104DF000002AF6D100BF32B900274F6043680B602C
:104E0000596041600CE017682FB9116000270F60EE
:104E10004A60016004E013680B604A6059601160E9
:104E2000F0BD2DE9F0410446256BE68F0AE0D5F888
:104E30000C8008F108072946384600F00AF82035AA
:104E4000701E86B2002EF2DC0020E0872063BDE8F1
:104E5000F08110B50489012C03D100240460446062
:104E600011E00C6824B94A680024146002600AE06A
:104E70004C6824B90B6800245C60436003E00B6855
:104E80004A685A6013600489641E048100244C60DF
:104E90000C6010BD2DE9F84306460C4617469846AF
:104EA000089D94F8360008285BD2DFE800F004057E
:104EB00008090607323300BF00BF00BF52E000BF41
:104EC00094F83400032807D143463A462146304639
:104ED000009500F04AF803E02765A4F854802564A3
:104EE00036B12046FFF79DFF21463046FFF72CFFE5
:104EF00094F83600032802D1204601F02BFB20460F
:104F000000F050F900203434A070607004F83409C7
:104F100028E000BF94F83400032807D143463A46FE
:104F200021463046009500F020F803E02765A4F8FC
:104F30005480256436B12046FFF773FF2146304682
:104F4000FFF702FF94F83600072802D1204601F04F
:104F500001FB04203434A0700020607004F8340990
:104F600000E000BF00BFBDE8F883F0B50446059E31
:104F7000086BCD8F0AE0C768A74204D10461426183
:104F80000383C66104E020306F1EBDB2002DF2DC49
:104F900000BFF0BD70B50025074C03E005F120000F
:104FA000C5B2241D20680028F8D02068FBF78BF9D3
:104FB0002844C5B2284670BDC0010020002004E08E
:104FC0000021034A42F82010401C0228F8D3704701
:104FD000C001002030B5420900F01F030121C3F1D8
:104FE0001F04A140034C54F822400C43014D45F8E6
:104FF000224030BDC001002030B5420900F01F033F
:105000000121C3F11F04A140034C54F822408C43FA
:10501000014D45F8224030BDC00100200021034A67
:105020001160034A11800180704700001C020020BB
:10503000200200202DE9F04F85B007468A469346AE
:105040001C460020029000BF00BF00BFFBF730F9F4
:10505000029000BF00BF48480078401C46490870D5
:1050600000BF00BF0298FBF727F900BF00BF00BFD9
:1050700007F108063089002842D104F0100010B969
:105080004FF0000801E04FF01008DDE90E01434643
:105090005A46CDE90001514607F12000FFF738FDDF
:1050A00000BF00BF00BFFBF703F9029000BF00BFC5
:1050B00031480078401E3049087008460078A0B991
:1050C0002E480088002809DD00BF00BF0298FBF7CA
:1050D000F3F800BF00BF00F0E7F80DE000BF00BF2D
:1050E0000298FBF7E9F800BF06E000BF00BF029896
:1050F000FBF7E2F800BF00BF00BF05B0BDE8F08FCE
:1051000004F4007008B1358900E00125D6F800905C
:1051100011E0D9F808000390D9F8040004900E9823
:105120005B465246009038460399FFF7B3FEDDF820
:105130001090681E85B2002DEBD100BF00BF00BFEC
:10514000FBF7B6F8029000BF00BF0B480078401E86
:105150000949087000BF00BF0298FBF7ADF800BF17
:1051600000BF00BF04F4004008B9FDF767FE00214E
:105170000F98018000BFC0E730020020F40100203A
:1051800000210AE001EB4102054B03EB8200002203
:105190000281026042604A1CD1B24029F2D37047BA
:1051A000E463002010B5044694F83700FFF712FFBF
:1051B00094F8370005490978884203D1204600F069
:1051C00027F802E0204600F003F810BD1602002088
:1051D00010B590F8373003EB43030C4C04EB83011C
:1051E0000B893BB901230B810023C3600361086075
:1051F000486009E00B895B1C0B810B68C3600023CE
:1052000003610A681061086010BD0000E4630020BB
:1052100010B590F8373003EB43030B4C04EB8301DC
:105220000B893BB901230B810023C3600361086034
:10523000486008E00B895B1C0B810023C3604A684F
:105240000261D060486010BDE46300202DE9F041A8
:10525000054695F8370000EB4000124901EB800449
:105260002F69EE6887B946B9002020812060606010
:1052700095F83700FFF7C0FE0EE02089401E208120
:1052800000203061266007E02089401E2081FE60FA
:105290000EB9676000E0376100202861E860BDE872
:1052A000F0810000E463002010B5002400BFFAF78D
:1052B000FFFF044600BF00200C4908700C480D4950
:1052C000086008460068D0F88400401C0968C1F8EE
:1052D000840009480068401C07490860FBF759F83A
:1052E00000BF2046FAF7E8FF00BF10BD17020020FC
:1052F000206300209C0200205402002010B50448C6
:105300000078012803D1FBF7DFFE0249086010BDD9
:10531000300200202402002010B50A48007880B92D
:10532000FBF7D2FE08490968441A08480068A04201
:1053300001D20648046006480068A04201D2044831
:10534000046010BD3002002024020020280200204A
:105350002C02002009A1C1610021416108490968AE
:1053600011B90021816105E005490968816104499D
:105370000968486102490860704700002000000089
:10538000340200200021034A1160034A1180018089
:105390007047000034020020380200202DE9FF5F32
:1053A0000446884691461D460020019000BF00BF7C
:1053B000FAF77EFF019000BF00BF04F108073889AB
:1053C00000284FD10420012804D0022814D004283A
:1053D00034D123E0206AFF280DD100BF00BF01981F
:1053E000FAF76AFF00BF00BF46F6C55028800020CC
:1053F00004B0BDE8F09F22E04FF6FF71206A8842BA
:105400000BD100BF00BF0198FAF756FF00BF00BFE5
:1054100046F6C55028800020EAE710E0206A401CCC
:1054200058B900BF00BF0198FAF746FF00BF00BFA0
:1054300046F6C55028800020DAE700E000BF00BF34
:10544000206A401C2062D4F820A0C4F8249000BF39
:1054500000BF0198FAF730FF00BF00BF002028808E
:105460005046C5E700BF25480078401C2349087016
:1054700000BF00BF0198FAF71FFF00BF00BF00BFC9
:1054800008F4007008B13E8900E00126D7F800B0AA
:1054900011E0DBF808000290DBF804000390002321
:1054A0001A46CDF8009020460299FFF7F3FCDDF88C
:1054B0000CB0701E86B2002EEBD1D4F820A000BF35
:1054C00000BF00BFFAF7F4FE019000BF00BF0B4819
:1054D0000078401E0949087000BF00BF0198FAF724
:1054E000EBFE00BF00BF00BF08F4004008B9FDF7A5
:1054F000A5FC0020288050467AE7000030020020FA
:1055000086B00020009006E0C2490968480001AA60
:105510000021FEF727FDC04800780128F4D101A83A
:10552000FDF72EFF0027BD480068BA490968884288
:1055300005D9BA480068B7490968B0FBF1F727B93F
:10554000B64800680A21B0FBF1F762E1FBF7BCFD49
:10555000804600BF00BFFAF7ABFE009000BF00BF5F
:10556000AF480068AF4908600020AD49086000BF3F
:1055700000BF0098FAF7A0FE00BF00BFAA4800686D
:10558000A8490968884248D9A7480068A7498842BD
:1055900005D242F2107003900120029023E0A2484D
:1055A0000068A349884205D24FF47A7003900A201C
:1055B000029018E09C4800689E49884203D264200B
:1055C000039002900FE0984800689B49884205D2FA
:1055D0000A2003904FF47A70029004E001200390B7
:1055E00042F210700290904801680298B1FBF0FA04
:1055F0008C49039809684843B0FBFAF042F21071F5
:10560000081A8E4908808E4800880988884208DA7E
:105610008A4800888A49088003E042F2107087496E
:105620000880FDF749FF002500BF00BFFAF740FEE4
:10563000009000BF00BF8348046800BF00BF00980F
:10564000FAF73AFE00BF00BF5AE000BF00BF00BF3C
:10565000FAF72EFE009000BF00BF7B480078401C88
:105660007949087000BF00BF0098FAF725FE00BF17
:1056700000BF00BF54F8900F6060002044F890090C
:1056800000BF00BF00BFFAF713FE009000BF00BFCD
:105690006D480078401E6C49087008460078A0B933
:1056A0006A480088002809DD00BF00BF0098FAF7AB
:1056B00003FE00BF00BFFFF7F7FD0DE000BF00BF16
:1056C0000098FAF7F9FD00BF06E000BF00BF0098A0
:1056D000FAF7F2FD00BF00BF00BFD4F89400054404
:1056E00000BF00BFFAF7E4FD009000BF00BFD4F890
:1056F000B04000BF00BF0098FAF7DEFD00BF00BF5A
:10570000002CA2D145B34948854205D242F210701F
:1057100005904FF0010B1BE04548854205D24FF440
:105720007A7005904FF00A0B12E04248854203D28E
:105730006420059083460BE03F48854204D20A204E
:1057400005904FF47A7B03E00120059042F2107B34
:10575000B5FBFBF0049003E00020059001200490CD
:1057600000BF00BFFAF7A4FD009000BF00BF35489E
:10577000046800BF00BF0098FAF79EFD00BF00BF9D
:105780002BE0D4F89400059948430499B0FBF1F05C
:1057900086B242F21070864200D90646A4F88060B4
:1057A000B4F88200B04201DAA4F8826001AB04F1DF
:1057B000A002111D2046FEF7F9F900BF00BFFAF75D
:1057C00077FD009000BF00BFD4F8B04000BF00BF1D
:1057D0000098FAF771FD00BF00BF002CD1D11C4822
:1057E0000078012805D100201949087001A8FDF7AB
:1057F000C7FDFBF769FCA0EB08091648006848459F
:1058000002D21448C0F8009001AA00213846FEF7E1
:10581000A9FB9BE664A500084C0200207CA50008BB
:10582000400200204802002044020020801A0600A6
:1058300000093D00005A62020084D7173C02002094
:105840003E0200205802002030020020F401002017
:105850003A0200205002002010B58AB00446002011
:105860001F4908601F4908601F4908601F490870E8
:105870001F4908701F48006820B946F62B60208039
:105880000AB010BD1C4800681C490968884203D250
:1058900046F62C602080F3E7194800783F2803D3B0
:1058A00046F62A602080EBE7032000210591CDE930
:1058B00007040691084610490968124A12680D4B00
:1058C0001B68CDE90132CDE903100D4800780023B3
:1058D0000D4A0EA100901248FDF7F8FD00BFCFE77A
:1058E0004002002048020020440200204C02002018
:1058F0003A02002068A5000870A5000878A50008F5
:1059000060A500086CA500080155000875432F4FDD
:10591000532D4949492053746174205461736B00BD
:10592000E466002070B504460D4645B12A4621467E
:10593000064800F06DFD032084F8360002E00220E6
:1059400084F836002046FFF781FC70BD700200200D
:105950000021C0F8AC100949096819B90021C0F844
:10596000B01007E005490968C0F8B010034909689C
:10597000C1F8AC00014908607047000058020020DF
:10598000D0F8AC20D0F8B0104AB90D4B196011B165
:105990000023C1F8AC300023C0F8B0300FE029B9C3
:1059A0000023C2F8B030C0F8AC3008E0C2F8B01044
:1059B000C1F8AC200023C0F8B030C0F8AC3070475C
:1059C000580200200021044A1160044A1180044A50
:1059D0001160018070470000580200205C02002026
:1059E0005402002070B5044600202060A060606072
:1059F000E06020616061A061E06124A0206200207D
:105A00006062A062E06220642065A4F85400002176
:105A100004F15800FFF774F80020A066E0666067A4
:105A2000A4F87C00A067002506E0002104F17000C6
:105A300040F82510681CC5B2002DF6D00020343483
:105A400020616066A066606084F84A002067E066B6
:105A500020816061A061A4F84C00A4F84E0020658C
:105A60006065FBF731FB0646A6650020E0656067D0
:105A700020706070A0704020E0700020A067E06798
:105A800004A0C4F88000343C70BD00003F54617332
:105A90006B000000200000002DE9FC4704460F4683
:105AA00090469946DDE90A654FF0000A00202880FB
:105AB00000BF00BF00BFFAF7FBFB824600BF00BF7C
:105AC00075480078401C7449087000BF00BF5046FC
:105AD000FAF7F2FB00BF00BF00BF0CB96F480468C3
